:020000040000FA
:04000000FEEFFFF020
:020000040001F9
:10FE9000000160EFFFF071ECFFF0ACECFFF052EC12
:10FEA000FFF01200700E0001AD6F000EAF6F000E7C
:10FEB000B36F020EB16F000EB06F000EAC6F120088
:10FEC0004BECFFF0000E176E000E166E000E026E69
:10FED000016883ECFFF0164A172A66EFFFF0FEEF89
:10FEE000FFF0000E0001606F000E616F000E636F87
:10FEF000000E646F000E656F000E666F000E676F78
:10FF0000000E686F1200000E096E000E086E000EE3
:10FF1000056E000E046E9CEFFFF0000ECE6E6100C9
:10FF200020F4CEF4A30E036E550EE82EFED7032E5A
:10FF3000FCD700F0084A092A0150085C0950800AE1
:10FF4000036E0250800A0358D8A0A9EFFFF0ABEF70
:10FF5000FFF08DEFFFF01200000EC26E000EC16EBA
:10FF6000000EBE6E000EC36E000EBF6E000EC06EA1
:10FF7000070ECA6ECB68000EC66EC768C868C9682F
:10FF8000000E0401186F000E106F000E086F000EB7
:10FF9000206F000E286F7F0E006F000E196F000E8D
:10FFA000296F000E216F000E096F000E016F000E09
:10FFB000116F000E0201896F000E886F000E876FAF
:10FFC000000E866F000E0401226F000E2A6F000ED5
:10FFD000026F000E0A6F000E126F000E1A6F036997
:10FFE0000B6913691B69070E236F2B6904690C6980
:10FFF00014691C690F0E246F2C69120048EFFFF082
:020000040020DA
:10000000FF0FFF0FFF0FFF0FFF0FFF0FFF0FFF0F80
:10001000FF0FFF0FFF0FFF0FFF0FFF0FFF0FFF0F70
:020000040030CA
:0A000000FCFFF7FF9FFFFFFFFFFF6B
:00000001FF
